:020000021000EC
:10B0000000400020E10F0200211002002310020086
:10B010000000000000000000000000000000000030
:10B0200000000000000000000000000025100200E9
:10B03000000000000000000027100200291002009C
:10B040002B1002002B100200D9D501002B1002009A
:10B050002B100200000000003DDA01002B1002005E
:10B0600011DF0100C5DF010079E001002B100200B3
:10B070002B1002002B1002002B1002002B100200DC
:10B080002B10020071CD01002B1002002B100200CA
:10B090004DCE01002B100200510F02002B100200B8
:10B0A0002B1002002B100200000000000000000026
:10B0B0000000000000000000000000000000000090
:10B0C00010B5064C2378002B07D1054B002B02D07E
:10B0D000044800E000BF0123237010BD7828002041
:10B0E00000000000241E020008B5084B002B03D00E
:10B0F0000748084900E000BF07480368002B00D15B
:10B1000008BD064B002BFBD09847F9E70000000074
:10B11000241E02007C28002074280020000000006B
:10B12000164B002B00D1144B9D46402292029A1AD6
:10B13000924600218B460F461348144A121A00F01B
:10B1400067F80F4B002B00D098470E4B002B00D018
:10B1500098470020002104000D000D48002802D06F
:10B160000C4800E000BF00F02DF82000290000F09E
:10B170005BF800F011F8C046000008000040002015
:10B18000000000000000000078280020A82E002009
:10B190000000000000000000084B10B5041C002B4C
:10B1A00002D0002100E000BF054B1868836A002B25
:10B1B00000D09847201C00F033F8C0460000000083
:10B1C000A81B02000E4B70B500251E1C0D4CE41A86
:10B1D000A410A54204D0AB00F35898470135F8E716
:10B1E00006F0D4FC084B00251E1C084CE41AA410E1
:10B1F000A54204D0AB00F35898470135F8E770BD7D
:10B200006C2800206C2800206C280020702800206A
:10B21000031C8218934202D019700133FAE7704779
:10B22000FEE7C04648DF704708B5002005210E4AFA
:10B23000002302F02FF8002801D001F03FFDA023E9
:10B240008022A321DB055204C9005A5007495A50F5
:10B2500000F04AF800F05CF8FFF7E4FF0028F9D0AE
:10B2600001F02CFDF6E7C046942800200C050000F4
:10B270000122014B1A7070475C2A0020A92800D0D7
:10B2800070478022AA21064BD205D150BFF34F8FC1
:10B29000044A054BDA60BFF34F8FC046FDE7C04656
:10B2A0001C0500000400FA0500ED00E00F23021C5D
:10B2B00010B59A43102A00D010BD18400B28FBD8B7
:10B2C000054B8000C45C1B1859789A78201CDB78E9
:10B2D00000F0DAFDF0E7C046B41B02007047C0463C
:10B2E00008B500F0B3F908BD08B500F0B9F8074893
:10B2F00000F040FC002803D000F08AFB0028FBD1BE
:10B3000000F05AFD00F0A2F908BDC046AC1B0200D7
:10B3100008B5044B1A78002A03D000221A7000F0F6
:10B3200089F908BD5C2A002073DF704776DF70471B
:10B3300078DF70477ADF70477CDF70477FDF7047C8
:10B340008ADF7047A9DF70477047C04608B501F033
:10B35000B5FC08BD10B5041C05F080FA3048211C6E
:10B3600000F0C0F92388103B9BB2452B26D82D4A0C
:10B370009B00D3589F46237CDA071FD4DB08132B8E
:10B380001CD1201C284911300A2205F0D1FF0028C9
:10B3900014D1264BE07E1A7882420FD01870FFF746
:10B3A00085FF8021A0220C1CA120214BD205D3585F
:10B3B000C0009C430B401F491450535010BD237ACA
:10B3C000002B01D1FFF754FFA2881B4B1A80FFF717
:10B3D00085FFF3E7184B13211888FFF7A7FF002814
:10B3E000ECD001F06BFCE9E70122134B52421A80CA
:10B3F000FFF776FFE2E7104B852118880022002333
:10B40000FFF79CFF0028D9D0EBE70B4B00211888F1
:10B4100000220023FFF796FF0028CFD0E1E7C046C7
:10B42000302B0020E41B0200301D02006A2800209F
:10B43000040500000C0500006828002008B503780A
:10B44000002B00D008BD054B3B211888FFF76EFF8D
:10B450000028F7D001F032FCF4E7C046682800204D
:10B4600070B594B001AD65490422281C05F06FFF4A
:10B47000281C63494822002305F018FD002800D04D
:10B48000B8E004AC01200121221C05F079FD002860
:10B4900000D0ACE05B4805F08BFD002800D0A3E0B5
:10B4A000201C05F08FFD002800D09AE0564805F0DA
:10B4B0003BFD002801D001F001FC0F2101222B7877
:10B4C000524E8B43134310220B401343301C2B70FE
:10B4D00005F068FF311C82B2281CFFF72DFF002801
:10B4E00000D07BE0C0204000FFF722FF002800D002
:10B4F00071E0201C00210822FFF78AFE50232380E0
:10B50000503363800023A3809133FF33201CE380FA
:10B51000FFF710FF002801D001F0D0FB40220021EE
:10B52000201CFFF775FE0AA8394905F0E9F90CA8B7
:10B53000384905F0E5F9201C374905F0E1F9374BAA
:10B5400037491A68281C05F00BFF08A8291C05F0CC
:10B55000D7F93C210F200122635C8343134310225F
:10B5600003401343635400223D23201CE25405F0A2
:10B5700039FA00282CD1002168460422FFF748FE42
:10B58000284B29486946009300F0D8F8002801D0DC
:10B5900001F094FB1C22201C0021FFF739FEA022A1
:10B5A00092026260F02200231203A260032204933D
:10B5B000E38123741D4B201C63611D4B2273A36127
:10B5C00005F010F9002801D001F078FB14B070BD2F
:10B5D00001F074FBCFE701F071FB8AE701F06EFB2D
:10B5E00080E701F06BFB61E701F068FB58E701F0D1
:10B5F00065FB4FE701F062FB43E7C046FC1C02001D
:10B60000602A00201824002055B30100001D02000C
:10B61000101D0200181D0200201D020080100010E5
:10B620002C1D020049B30100302B00203DB4010065
:10B630004DB3010008B50448FFF782FE002801D091
:10B6400001F03CFB08BDC0463C1D020070B582B055
:10B650006B46DD1DC2231C4C00213822201C2B70A0
:10B66000FFF7D6FD0223237003330126E370002386
:10B670006560164D0021281C38226362A670FFF712
:10B68000C7FD134B201C291C2E826B6104F09EFD0C
:10B69000002801D001F012FB0E4C0021201C1822C2
:10B6A000FFF7B6FD0023237063602372E360643309
:10B6B0002382201C5A3B6382FFF736FE002801D00C
:10B6C00001F0FCFA02B070BDE02A0020A82A002098
:10B6D00064280020182B0020A0DF7047A2DF7047ED
:10B6E00063DF704738B5002808D0002906D00B88E2
:10B6F000112B18D0502B02D0102B11D038BD8B1D20
:10B700005A89002AFAD0CC888588A5420FD0818931
:10B71000A142F3D1012AF1D1187BFFF7AFFDEDE78C
:10B720008B888382EAE701235B428382E6E712315A
:10B73000D2B2002000F076F9E0E7C046F0B54D4601
:10B74000564644465F461023F0B495B0061C0D1CC7
:10B7500004A86E49102299460E2405F0F8FD002E2B
:10B760000CD0002D0AD001235B42B3822B6804A8C1
:10B77000B361311CFFF7B4FF041E07D0201C15B0C5
:10B780003CBC90469946A246AB46F0BD337802A930
:10B790008B700123B21C01209A460B80FFF79CFF9F
:10B7A000041EEBD10DAD00211C22281CFFF730FD3B
:10B7B00002222B7800211343DBB20632904613435A
:10B7C000043A13436A462B70337801A89373092314
:10B7D000938103226C60EC602C616C61AC61FFF7BB
:10B7E00017FD0F226B4693461B7908AF93430E3A21
:10B7F00013435A461340013213436A461371537977
:10B800005A4693430E3A13435A46134001321343A8
:10B810006A465371937906229343043A134342468E
:10B82000DBB293434A469343524693436A46002110
:10B830009371381C1422FFF7EBFC03AB089301ABA8
:10B840007B60434670883B81BB81291C331D3A1CB9
:10B850007C813C61FFF742FF041E00D08EE700218F
:10B860001C22281CFFF7D4FC08222B78002113434C
:10B87000043A13436A462B70337801A893736B46DE
:10B880005A469A8103226C60EC602C616C61AC6159
:10B89000FFF7BEFC6B465A461B79002193430E3AD4
:10B8A00013435A461340013213436A4613715379C6
:10B8B0005A4693430E3A13435A46134001321343F8
:10B8C0006A465371937906229343043A13434246DE
:10B8D000DBB293434A469343524693436A46381C2D
:10B8E00093711422FFF794FC03AB089301AB7B60C8
:10B8F00053463B81BB81331C70880C33291C3A1C96
:10B900007C813C61FFF7EAFE041C37E74C1D020016
:10B9100038B502291CD012D903290AD004290DD127
:10B92000002A08D12F4C2378052B07D1012323703F
:10B9300004E0002A1AD02B4C0023237038BD0129C3
:10B94000FCD1284C002AF7D12378042BF6D1EDE75F
:10B95000002AF0D1234C2378022B23D0032BEDD1E6
:10B9600021490822214805F0F2FCDFE71D4C23782D
:10B97000062BE3D11C4D1E4B08221968281C05F02C
:10B98000E6FC281C1B4904220C3005F0E0FC0423D3
:10B9900019482370291C1022002303F085FF00287A
:10B9A000CAD1CBE7154B1A68154B9A420ED0104BF3
:10B9B0000E481968082205F0CAFC06231148102118
:10B9C000237004F04DF80028B6D1B7E703230648EA
:10B9D000237009491022002303F0EEFF0028ABD1A9
:10B9E000ACE7C0466B2800204C2B0020442E0020E2
:10B9F0006C2B00205C1D02005C2B0020702B0020B3
:10BA000088442222642B002008B503F021FD08BDE4
:10BA1000034B18780138431E9841C0B27047C046A6
:10BA20006B280020F0B547460B1C80B44E49002A15
:10BA30003FD009259542AD416C42A0460024251C0B
:10BA4000071DCF19BB4265410E182F1C1D1DAE42AC
:10BA5000644145463C432C4243D0341C1C43A4075C
:10BA60003FD1151FEDB2AD080135AC00571EE4B251
:10BA7000022F2DD91F683760012D09D05F687760CC
:10BA8000022D05D09F68B760032D01D0DD68F560F9
:10BA9000A2420ED01D5D08180555651CEDB2AA42E4
:10BAA00007D95E5D0234E4B24655A24201D91B5D5E
:10BAB000035505222D4B2E481A700B32002303F03C
:10BAC00037FF031C58425841C0B204BC9046F0BD39
:10BAD00000241D5D08180555651CEDB2AA42E0D88A
:10BAE000E7E71C780C54012AE3D95E780C186670DD
:10BAF000022ADED09E78A670032ADAD0DE78E670BD
:10BB0000042AD6D01E792671052AD2D05E796671B4
:10BB1000062ACED09E79A671072ACAD0DE79E671B0
:10BB2000082AC6D045461E7A2672002DC1D05D7AFD
:10BB300065720A2ABDD99C7A081884720B2AB8D07B
:10BB4000DC7AC4720C2AB4D01C7B04730D2AB0D0EA
:10BB50005C7B44730E2AACD09C7B84730F2AA8D0E4
:10BB6000DB7BC373A5E7C0464C2B00206B2800206D
:10BB7000642B002030B585B00190204805F0DEF937
:10BB800000280FD103F04AFD002811D01C4C01A958
:10BB9000201C082205F0DBFB001B43425841C0B2C9
:10BBA00005B030BD01F08AF803F038FD0028EDD172
:10BBB000102302A88380134C0F3BC380124B211C1F
:10BBC000029303F0D1FD0028E0D1104D201C00218C
:10BBD0002A1C03F041FE0028D8D10D4B019A0D48D4
:10BBE0001A6002220C4B291C1A7002320C2303F03B
:10BBF000E3FE0028CAD10130D2E7C04609BA0100ED
:10BC0000442E0020642B002011B901005C2B002081
:10BC10006C2B0020702B00206B280020002805D002
:10BC2000012800D07047034B1870FBE70122024B3C
:10BC30001A70F7E79D2B0020A42B0020F8B5374D94
:10BC40002B78002BFCD0364E364C2278301C00214D
:10BC500000F074FC1128F8D0334C2378012B50D01D
:10BC6000324B334F1A783B78D218D2B23A702B78D5
:10BC7000002BFCD092B2301C012100F05FFC112897
:10BC800007D13A78301C92B2012100F057FC1128FC
:10BC9000F7D02378012B3CD0264B274F1A783B78DE
:10BCA000D218D2B2254E3A703378002BFCD0244DF6
:10BCB00000E03A7892B2281C002100F03FFC1128E5
:10BCC000F7D02378012B20D01E4B1F4F1A783B78DA
:10BCD000D218D2B23A703378002BFCD092B2281C22
:10BCE000012100F02BFC112807D13A78281C92B2D0
:10BCF000012100F023FC1128F7D02378013B2370A9
:10BD0000F8BD124B0A4F1A78B0E7114B0E4F1A7854
:10BD1000E0E7104B084F1A78C4E7C046A42B002078
:10BD2000981D02009A2B0020A32B00209B2B0020A3
:10BD3000992B00209F2B0020A02B00209D2B002062
:10BD4000A41D0200982B0020A12B00209E2B002078
:10BD50009C2B0020A22B002010B5114B1B78002B30
:10BD60000AD0012B17D00F4B0F4A19781378CB1834
:10BD7000DBB21370FFF762FFA0220C4BD205D15843
:10BD800080235B041C1CA1208C430B400849C0008D
:10BD90001450535010BD074B034A1B78E9E7C046C7
:10BDA000A32B0020752B00209A2B002004050000F7
:10BDB0000C050000742B0020F0B5274B8BB0181C2D
:10BDC0006A4670C870C230C830C205AC221C143339
:10BDD00061CB61C2694621CB21C200231F4E204F97
:10BDE000301C3A1C0B724B722372637200F098FC89
:10BDF00000282ED11B4D211C281C3A1C00F090FC61
:10BE0000002823D1301C00F0F3FE281C00F0F0FEC7
:10BE10000123154A15481370154A01211370154B5B
:10BE20001A78154B1A70154A01F0A6FA00280AD1A3
:10BE300013481449002201F0B9FA002801D000F09B
:10BE40003DFF0BB0F0BD00F039FFF1E700F036FF29
:10BE5000D8E700F033FFCDE7601D0200981D020017
:10BE60001DBC0100A41D0200A42B0020A01D020087
:10BE70009D2B0020442E0020A52B002059BD010041
:10BE8000782B00208F020000F8B50C1C151C1E1C1E
:10BE9000642839D8642937D8642A35D8642B33D834
:10BEA0001A4B18701A4B19701A4B64211A701A4BDE
:10BEB0001E701A4B1F781A4B1B78C01A784305F076
:10BEC00045F9184B64211870174B1878201A7843DD
:10BED00005F03CF9154B64211870154B1878281A99
:10BEE000784305F033F9134B64211870124B18781E
:10BEF000301A784305F02AF9104B391C1870642069
:10BF000005F024F90E4B1870F8BDC046742B0020C4
:10BF10009E2B0020A22B00209C2B0020A52B002074
:10BF20009A2B0020752B0020992B00209B2B0020A2
:10BF3000A02B00209F2B0020A12B0020982B00205D
:10BF4000A32B0020F0B5474680B4234D4C002B5D59
:10BF50000E1C002B20D02B5D013BDBB22B552B5D43
:10BF6000002B12D02C196378002B22D06378013B70
:10BF7000DBB263706378002B1BD1184BB200D3582F
:10BF8000301C1B68DB69984713E0144B8F00DB59AA
:10BF9000081C1B68DB6998472C196378002B0BD1B0
:10BFA0000E4BB70098464346DB590221586801F012
:10BFB000A5FF04BC9046F0BD6378013BDBB2637023
:10BFC0006378002BF5D1054BB7009846DB59301C40
:10BFD0001B68DB699847E6E7942E0020A82B002019
:10BFE000F8B55F4656464D4644462223F0B40668EF
:10BFF000051CF75C023BF05C884692469B4602F0CB
:10C000003FF92123F05C02F03BF943465C002B68CA
:10C0100044449946A400A1444B46187A02F030F9F2
:10C020004B46587A02F02CF9524600236868414684
:10C0300001F016FF391C394802F0B6F901231A1C29
:10C040003419607A391C8240101C227A93401843BC
:10C0500002F0D6F96368002B35D05B46F05C6B6864
:10C06000FF0019682E4B4931FA18FF3102F0CAF867
:10C07000686803210122002301F0F2FE00216B68B1
:10C08000284A1B799B0099506B681A682123111C60
:10C090004931F05CFF314C3202F0B4F82023F05CFF
:10C0A00002F0D4F82123F05C02F0D0F853460321CB
:10C0B00063606B681C4A1B79D1543CBC904699461E
:10C0C000A246AB46F8BD43469900A0235B009946C3
:10C0D0005B46F05C6B6889441968114BFF00FA18E5
:10C0E000494402F08FF8686803210022002301F020
:10C0F000B7FE6B681A79196843465133FF339B00CA
:10C1000059589300074A99506B681A682123F05CCC
:10C110004B46D1184C3202F075F8BFE7FF3F0000E4
:10C1200000F00140B82B0020B42B0020F8B55F468A
:10C1300056464D4644462223F0B40568071CEE5C83
:10C14000023BE85C0C1C93469A4602F099F82123C6
:10C15000E85C994602F094F8311C3F4802F024F95B
:10C1600063001A1998460123191C9200AA18507AE4
:10C17000127A81409340081C311C184302F040F9A8
:10C180005B46002B3CD0AB69F6009B465346E85C0F
:10C190007B681968314B4931F218FF3102F032F8EF
:10C1A000786803210122002301F05AFE00217B68F8
:10C1B0002B4A1B799B0099507B681A684B46111CCF
:10C1C0004931E85CFF314C3202F01CF85B461E043A
:10C1D000360C2023E85C02F039F82123E85C02F0F9
:10C1E00035F803214444A4002C1966607B681D4A7D
:10C1F0001B79D1543CBC90469946A246AB46F8BD4B
:10C200004133FF339B465346E85C7B68A1008B4477
:10C210001968124BF600F218594401F0F3FF7868E0
:10C2200003210022002301F01BFE7A680026137907
:10C230001168221C5132FF3292005158084A9B006B
:10C2400099507B681A684B46E85C5B46D1184C32C3
:10C2500001F0D8FFBDE7C046FF3F000004F00140F9
:10C26000B82B0020B42B0020F0B55F4656464D4653
:10C2700044462223F0B42024056883B0EB5C061CFE
:10C28000285D0F1C90469A4601F0FAFF21239B4639
:10C29000E85C01F0F5FF51462F4802F085F85B4657
:10C2A000E85C203B994683404A46181C2B5D51466A
:10C2B0009A40104302F0A4F873683A1C1B681032CD
:10C2C000191C92004D31D2B29A18285DFF3101F04D
:10C2D00099FF73687C001B68E4191A1C0193A22360
:10C2E000DB00D358A400DAB2534253412C196268E0
:10C2F0004344934223D35B46E85C4B46834051461C
:10C30000181C02F051F843466360424670680321EE
:10C31000002301F0A5FD504602F02EF84146736857
:10C320000E4A1B799B00995073680D4A1B79D754AC
:10C3300003B03CBC90469946A246AB46F0BD5B4676
:10C340002068ED5C01F04EFB0199021C4D31FF317C
:10C35000281C01F057FFD6E7FF3F0000B82B002054
:10C36000B42B0020F0B55F46444656464D46F0B427
:10C37000041C036823201F5C83B01B38022F06D0E7
:10C3800003B03CBC90469946A246AB46F0BD161C95
:10C3900091464A000192521892009A180D1C516859
:10C3A0008E4241D067683A7994466046604A90462A
:10C3B000125CD2B2FF2A13D0FE2A00D184E051329F
:10C3C0003868FF3292001258924662469000594AED
:10C3D000825811209245D3D1FF2240466746C2556C
:10C3E000FE2240466746C255002925D09A699142EF
:10C3F00022D2201C291C002E02D0964200D293E0AB
:10C40000321CFFF793FE2368DB69002B0AD002225F
:10C41000636802211B795B005D19474BEA54606831
:10C4200001F05AFD0020ABE7DB69002BFAD062680F
:10C43000107998470020A3E7002E47D09B699E42C1
:10C440006CD323689A4620235246D05C01F018FF33
:10C4500021235246D05C01F013FF019B22685B1937
:10C460009B009C4662449346107A1F1C01F008FF13
:10C470005B46587A01F004FF53469B699B469E42F7
:10C480000FD35246B85822683B1C94466344997AAD
:10C490004B1E9941C9B201F0B5FA5B461B041B0C57
:10C4A0009946291C4A460023606801F0D9FC019B8B
:10C4B0004A465F19BF003B1C53445A604146FF2265
:10C4C00063681B79CA549EE7112059E723689A468E
:10C4D00020235246D05C01F0D3FE52462123D05C8B
:10C4E00001F0CEFE019B5E192368B6009946B14467
:10C4F0004B46187A01F0C4FE4B46587A01F0C0FE54
:10C500005346985923689C466644B37A5942594128
:10C51000C9B201F077FA00239946C2E7201C291C12
:10C52000321CFFF75DFD6EE7321CFFF79DFE6AE7E8
:10C53000B42B0020B82B0020942E0020F0B55F46CD
:10C54000564644464D462323F0B4066883B0F45C57
:10C55000B7691B3B022C07D0181C03B03CBC9046AB
:10C560009946A246AB46F0BD041C3804000C0D1CD5
:10C570005043642104F05AFD030401931B0C9846B8
:10C580006B0000935B199B00F318596888453FD0F6
:10C5900063681A799C465F4B99469B5CDBB2FF2B24
:10C5A00014D0FE2B74D0664651333668FF339B009F
:10C5B0009B599B4693009C466646574BF3589C46B6
:10C5C0001123E345C8D14E46EE33B35483B24E46F1
:10C5D000FE20B054002923D08F4221D9201C291CD1
:10C5E0001A1E02D0474500D991E0FFF79FFD23684E
:10C5F000DB69002B0AD00222636802211B795B00F1
:10C600005D19464BEA54606801F066FC0023A3E71D
:10C61000F369002BFAD062681079984700239BE7F2
:10C62000002B37D047456CD823689A4620235246C2
:10C63000D05C01F025FE21235246D05C01F020FEA3
:10C64000009B22685B199B009C4662449346107ACB
:10C650001E1C01F015FE5B46587A01F011FE534690
:10C660009B699B4698453CD2019B1F0C291C3A1C98
:10C670000023606801F0F4FB009BFF225E19B60006
:10C68000331C494653445F6063681B79CA54AEE764
:10C69000112361E723689A4620235246D05C01F0BB
:10C6A000EFFD52462123D05C01F0EAFD009B5F19AB
:10C6B0002368BF009846B8444346187A01F0E0FD6D
:10C6C0004346587A01F0DCFD5346D85923689C460E
:10C6D0006744BB7A002759425941C9B201F092F927
:10C6E000C4E75246B0582268331C94466344997A92
:10C6F0004B1E9941C9B201F085F95B461F043F0CFE
:10C70000B4E7201C291C1A1CFFF76AFC6FE7FFF72F
:10C71000ABFD6CE7B42B0020B82B0020942E00203A
:10C72000F0B55F4656464D464446F0B48BB00029FE
:10C730000DD0232305680824EB5C002B09D0201CB6
:10C740000BB03CBC90469946A246AB46F0BD0B24CC
:10C75000F5E793468946071C01F0E8FC002802D063
:10C76000043C8528EBD101F085F8002800D17AE15E
:10C77000FF23212220260021281CAB55AB54013277
:10C78000AB54233AE9722B726B722A60E9752A75F1
:10C790006B75EA60203001F0D5FC002800D0A6E1DE
:10C7A000281C213001F0CEFC002800D09FE1281C7D
:10C7B000223001F07DFD002800D01FE100268046D8
:10C7C000AA46F3B203934B46B5005C59631C00D1F3
:10C7D000A6E04B469B191B7A04933B681A1C0293F4
:10C7E0002323D35C002B00D1B3E1161C08242023A3
:10C7F000F05CFF2801D001F0E3FC2123F05CFF286E
:10C8000001D001F0DDFC2223F05CFF2801D001F013
:10C810008BFD18239946193B98460023FF259A461D
:10C82000B144307AFF2802D001F0CAFC3572707A28
:10C83000FF2802D001F0C4FC75723068431C03D09D
:10C8400001F090F8434633605346F3720C364E4580
:10C85000E7D1786801F0C6FA71E7059B1C60049B7C
:10C86000002B00D1BAE10123A340A0221C1CD54B10
:10C87000D205D450069B9C19A400029B201C9C4608
:10C880000830604401F05EFC002800D080E1029B8B
:10C89000201C9C460930604401F054FC04900028A0
:10C8A00000D075E1029B41359C46082364449C46B8
:10C8B000A4446346207A069301F0E2FC607A01F01A
:10C8C000DFFC7B68FF351B68227A5D19059B0292AD
:10C8D0001968081C079101F085F8291C021C0298B0
:10C8E00001F090FC7B68647A1D68059B49351868E7
:10C8F00001F078F8FF35021C291C201C01F082FC95
:10C9000001236946069A097CD3707B68AE4A1B797D
:10C91000381C5B009B19995403990022FFF722FDF4
:10C92000012E69D14B46A94A1B694446554693429C
:10C9300000D830E15908914200D834E19908914279
:10C9400000D82DE1D908914200D826E11909914279
:10C9500000D831E15909914200D82AE19909914260
:10C9600000D823E1D909914200D828E11B0A93425B
:10C9700000D8B9E095495B0809228B4200D8B4E0A1
:10C98000002308A94B708B700333CB707B680A704F
:10C990001B7978688E4A4B6001F0B0F9061E69D1A8
:10C9A0007B681A68A223DB00D6584B46FF221B691E
:10C9B00016401B01F340AB61786891461E1C01F0E4
:10C9C0004BFA01230093321C984678680333022106
:10C9D00001F05CFA0221786801F090FA5B46EB61A5
:10C9E0007B687C4A1B7999008F5049467A4AD1541A
:10C9F00023234246EA54A2E60126E2E63C68A05D13
:10CA0000FF2801D001F0DCFB2123E05CFF2801D0EE
:10CA100001F0D6FB2223E05CFF2801D001F084FC6A
:10CA200018239946193BFF2598460026A144207AF1
:10CA3000FF2802D001F0C4FB2572607AFF2802D0E3
:10CA400001F0BEFB65722068431C03D000F08AFF32
:10CA500043462360E6720C344C45E8D1786801F017
:10CA6000C1F904246BE600F0CBFE0324002800D0BB
:10CA700065E67DE620233C68E05CFF2801D001F0FC
:10CA80009FFB2123E05CFF2801D001F099FB2223CA
:10CA9000E05CFF2801D001F047FC18239A46E733F9
:10CAA0009846013BFF3B99460025A244207AFF2887
:10CAB00003D001F085FB43462372607AFF2803D040
:10CAC00001F07EFB434663722068431C03D000F0F4
:10CAD00049FF4B462360E5720C345445E6D1786833
:10CAE00001F080F9341C2AE60822D2B248E720235C
:10CAF0003C68E05CFF2801D001F062FB2123E05C90
:10CB0000FF2801D001F05CFB2223E05CFF2801D06C
:10CB100001F00AFC18239946193BFF269846002588
:10CB2000A144207AFF2802D001F04AFB2672607AE5
:10CB3000FF2802D001F044FB66722068431C03D03A
:10CB400000F010FF43462360E5720C344C45E8D1F9
:10CB500084E7111C8C46720006929219920094444C
:10CB600061464B606B461B7C05918B72032308A9C1
:10CB70000B703B68201C9C466244927A534253419E
:10CB80004B7001238B7000F07FFE002800D164E61B
:10CB90003E6804242BE60022F2E60322D2B2EFE63E
:10CBA0000222D2B2ECE60122D2B2E9E60622D2B2E9
:10CBB000E6E60522D2B2E3E60422D2B2E0E607229C
:10CBC000D2B2DDE60C050000942E0020FF0F00001D
:10CBD00045BF0100A82B0020B42B00200123A34057
:10CBE000A1221C1CA023D200DB059C5042E6C046BB
:10CBF000F8B500274368294E1B7905685B00F75498
:10CC0000EB7A041C002B20D163681B795B00F318BE
:10CC100000265E70EB7D002B24D1FF216068204A46
:10CC20000379D15403681F4A93422DD01E4A934280
:10CC30002FD01E4A934222D001F00EF9606801F015
:10CC4000FDF802222323EA54F8BD036828689B7A82
:10CC500059425941C9B200F0D5FE286800F0A6FE3D
:10CC60006F60D1E72368E8689B7D59425941C9B29A
:10CC700000F0C8FEE86800F099FE2E61CDE70122C1
:10CC80000B4B1A606068D7E701220A4B1A60606894
:10CC9000D2E70122084B1A606068CDE7942E00208D
:10CCA000B42B0020008000400090004000A0004015
:10CCB0000CAC00400C8C00400C9C0040002300B5E4
:10CCC00085B001AA9060002103481380536000F0F2
:10CCD00005F805B000BDC04601400000BFF34F8F0E
:10CCE000034A044BDA60BFF34F8FC046FDE7C046EE
:10CCF0000400FA0500ED00E080218023184A890233
:10CD0000D1508022D221174B520289005A5040390B
:10CD10005A5001222F205A600138C046C046C046F2
:10CD2000C046C046C046C046C046C046C046C046D3
:10CD3000C046F1D19A6000230B4A2F2013600138BE
:10CD4000C046C046C046C046C046C046C046C046B3
:10CD5000C046C046C046C046F1D1044A1370704771
:10CD600000E100E000100140C42B0020E42B002073
:10CD7000A021F0B5002347462B4A490080B4535008
:10CD80000431535004315350043153504C395350F3
:10CD900004315350254B1B68002B35D02449002605
:10CDA00052582449244F0C68141B00222402240AE0
:10CDB000904602E0002D18D02B1C1A68A24214D80D
:10CDC000A41AB6181A7CDD69002AF3D04246996984
:10CDD0001A745A693B68002B19D0101C9847002818
:10CDE000E8D0FFF76BFF002DE6D1144B14491A78F9
:10CDF0000B789A420ED0134A9B009E5080218023CC
:10CE0000114A49035B00D15004BC9046F0BD081C98
:10CE10009047CFE70132D3B2022B01D00B70EAE783
:10CE200000230B70E7E7C04600100140C82B00202C
:10CE300004050000C42B0020CC2B0020D82B0020A0
:10CE4000D92B0020DC2B002000E100E0F0B55F468C
:10CE500056464D464446F0B4B44BB54A1B68B549F6
:10CE600089B0019309781378994200D1B1E1013377
:10CE7000DBB2022B00D100231370AF4A9B009B58FA
:10CE8000AA4A9946019B4B441B021B0A13600123CB
:10CE90000493AA4B00241B689B46A94BD8461B78D9
:10CEA0001A1C0293A74B944607931B6803939F4B4E
:10CEB0001B680693A44B1B7805935B466646013EB0
:10CEC000F2B29446FF2A4FD06246D000039A9246AF
:10CED000504401784578A942F0D04A00521887782A
:10CEE00001314668C9B27F1AB2467E1EB741D200F0
:10CEF0007F42524439401778022F0AD0032FEAD1DB
:10CF0000002BE8D01C74DB69002BFBD145789846D8
:10CF1000E1E75668002B25D09E421AD01F1C00E086
:10CF2000171CFA69002AD6D09642F9D1321C3D1C52
:10CF3000BE4200D1EBE01768D269EA61002A06D050
:10CF400013689A465744176045784346C3E74578C7
:10CF5000C1E7DE691A1C002E00D1DDE0B046331CAB
:10CF6000151CE8E70023B6E76946774A097D181CD7
:10CF700011706E4A06990393116041466F4A116021
:10CF8000049A002A00D028E15B461B1A5A1E9341DE
:10CF90000025DBB20493079B00271B68039E0693C2
:10CFA000624B1B689C46654B1B689A46664B1B7818
:10CFB0000593664B019301239846029B013BDBB22C
:10CFC0000293FF2B00D18FE0069ADB0093469B442F
:10CFD000002D27D06968AB68281CED696246019C6A
:10CFE0008A1A1202120AA24250D8D318424603608B
:10CFF000476087600274C761002E56D03168341CC8
:10D00000994204D35FE01168994263D2141CE2692B
:10D010005B1A002AF7D10360331CC261E0611E1C59
:10D02000002DD7D15B465A461B7852789A42C4D01D
:10D03000594649685A0089465946D2180133DBB22D
:10D040000B708978D2004A4499424AD011785068CE
:10D05000331C0129E3D1037C99464946331C00293E
:10D06000DDD191684160D36883601469C4605269FE
:10D070008261059A002AB1D04A4600214260624688
:10D08000019C8A1A1202120AA242AED96246511AB1
:10D090000902090A99420CD242465B1A03604760B2
:10D0A00087600274C761002EA8D1031C82461E1C33
:10D0B000B6E743460760476087600374C761002E88
:10D0C000F3D000233168CB1A3360031CC66182465B
:10D0D0001E1CA5E7C91A11600360C261331CE06120
:10D0E0009DE75B461D70B1E75246144B1A60039BE7
:10D0F000B3422FD1049B002B2CD10023124A137072
:10D1000009B03CBC90469946A246AB46F0BDDE69EC
:10D110003A1C002E00D021E701250D4B9D60002315
:10D12000069601369846151C059604E7C42B002088
:10D13000D82B0020D92B0020DC2B0020C82B00206E
:10D14000D02B0020D42B0020DA2B0020FEFF7F0004
:10D1500000100140002E63D0484B49493568CC5837
:10D16000484B494E1B683078E21A1202120A033209
:10D170009046002861D04246AA4200D22A1CA8202C
:10D18000D21812023E49130AC0003C4D0B504A59B6
:10D190001B1B121B1202120A1B0203321B0A9A42A9
:10D1A000ABD94B590B502F200138C046C046C04662
:10D1B000C046C046C046C046C046C046C046C0463F
:10D1C000C046F1D180218023304A89025B00D150D2
:10D1D00093E70023994604935BE600250021002491
:10D1E0004846464613E01A6882421CD8DE68801A18
:10D1F00089181C60DF69002E07D0DD611D1C019AB3
:10D200009E608A181202120A5A603B1C3E1C002BB8
:10D21000E9D11F4B1E600023039301330493BAE648
:10D22000FFF76AFD69E78146194903930E60494695
:10D23000521A1A6001230493ADE68020D1274002E0
:10D24000BF00C851403FC851C02280270F48BF02CD
:10D2500052008750076001272F200F600138C04619
:10D26000C046C046C046C046C046C046C046C0468E
:10D27000C046C046C046F1D137707CE704050000C7
:10D2800000100140C42B0020E42B002000E100E04E
:10D29000C82B0020F8B54F464646C0B40326351CBF
:10D2A00080460F1C141C994615400720002D03D002
:10D2B0000CBC90469946F8BD002A44D0FFF71CFDEF
:10D2C0004A46224B80201A60221C214B18321E70C5
:10D2D000204B62601C607B00DB19DB00D218E2602F
:10D2E000D318C022636125706570A77025726572BE
:10D2F000A77225746574A774C524FF21164B4003DB
:10D300001D60164B52001D70154BA4001D70154B6F
:10D3100098501A598A433F390A431A51A12218607A
:10D3200040461149D2008850C42080001C580F4A42
:10D330002240C024240222431A500D4B0020CA5818
:10D340000C4B1A60B4E7034B1A60B1E7CC2B0020FA
:10D35000D02B0020D42B0020C82B0020D82B00205D
:10D36000D92B002000E100E000100140FF00FFFF8A
:10D3700004050000C42B002010B50B4B1B68002BCC
:10D380000BD0002A07D0002805D0036808201C7C99
:10D39000002C04D010BD0720FCE70820FAE75974E0
:10D3A0005A610020F6E7C046D42B0020F0B547466E
:10D3B00080B4374B1C68002C08D0002806D0072307
:10D3C000042905D8181C04BC9046F0BD0823F9E7D1
:10D3D0004369002BFAD00025437CA846012B2FD0AF
:10D3E000EFF30583DB05DB0D1025002B2CD1641931
:10D3F0006378A5785E1CF6B2AD1B6F1EBD416D4211
:10D400002E402578B5421DD05D00EB186568DB0025
:10D41000ED180423002DD5D0033B2B7068601D4B05
:10D420001D48C358E960AB60434680212B618023CF
:10D430006A611A4A5B0049036670D1500023C1E754
:10D440008846CDE70423BDE7103BDEB275B2002D60
:10D4500013DBAD08114EC035AD00AD590326334086
:10D46000DB00DD402B069B0FDBB20025012BBED07D
:10D470000835032BBBD00835B9E70F23084D3340DF
:10D48000AC46083B9B089B0063445D680323E6E7CA
:10D49000D42B0020040500000010014000E100E052
:10D4A00018ED00E030B52E4A031C12680820002A4F
:10D4B0002ED0002B2CD05969002929D000211974B5
:10D4C000EFF30581C905C90D1025002923D1551990
:10D4D0006A78A978541CE4B2091B481E814149426C
:10D4E0000C402978A14214D051008A186968D200F2
:10D4F0008C4662440420002A0AD002215360117035
:10D50000802380210020174A49035B006C70D150B2
:10D5100030BD0420FCE71039CCB260B2002813DB28
:10D520008008104CC0308000005903242140C900FD
:10D53000C8400106890FC9B200250129C7D00835A6
:10D540000329C4D00835C2E70F210748214084468B
:10D55000083989088900614448680321E6E7C04624
:10D56000D42B002000E100E018ED00E0F0B5EFF36F
:10D57000108172B60A4B5A68002A0DD10124802509
:10D58000084E5C607459084F3C401C607751027033
:10D59000002900D162B6F0BD01230370F8E7C04650
:10D5A0009C2E002000E100E0FC06FFBC10B5084BFB
:10D5B0005A68002A0BD0002809D1EFF3108272B606
:10D5C00004491C680C605860002A00D162B610BD86
:10D5D0009C2E002000E100E0C12210B5604B9200BB
:10D5E0009A5884B092054DD55E4A1168002949D0F9
:10D5F000002111608121C2228900920099505A4B6A
:10D600009A7E002A02D10121584A116002226946FD
:10D610000A7090215248C90042584250694603920C
:10D62000DA7D68460A72DA68196801920022DA75B2
:10D630001A765B6898474E4A1368002B10D04A4B05
:10D64000988A997D81424FD9002111609A8A996800
:10D65000895C9A8A013292B29A82464B404AD150F2
:10D66000454B1A68002A0BD000221A603E4B9A7E66
:10D67000002A02D001213A4A1160DA7D002A42D103
:10D6800004B010BDC123364A9B00D3585B07D2D5E6
:10D690003A490B68002BCED0334BD87D00283FD1C0
:10D6A0000860A321C90052585A7ED97D9142C2D147
:10D6B0001A7E002A41D19A7E002A02D101212B4AEA
:10D6C00011608120C22226498000920088500022E9
:10D6D00068460121DA755A7E01700272DA681968AB
:10D6E00001925B689847A6E7002010600029B7D038
:10D6F0006A46107011729A689875196801925B6891
:10D7000068469847ACE7002268460121DA755A7EE0
:10D7100001700272DA68196801925B689847AFE796
:10D7200000200860A320C000597E1258D8684254D7
:10D730005A7E0132D2B25A76B6E7DA751A69D968DA
:10D74000DA6000226C46587E1A765A7601322072D0
:10D7500001912270196868465B6898476BE7C0467C
:10D760000020004024210040E82B0020042000403D
:10D770001C2100401C0500004421004008210040FD
:10D78000F0B5002820DBFF271B4B03229C463B1CE7
:10D790008408C026C0B20240D2009340A400644472
:10D7A000B600A5599D438B013B409340191C29436A
:10D7B000A1511F2318401E3B8340C022181C0E4B52
:10D7C000520098501860F0BDFF260C4A032494467E
:10D7D000321C0F23C0B20440E400A2400340083BC7
:10D7E0009B089B006344DD6995438A013240A24057
:10D7F000111C2943D961DCE700E100E000ED00E005
:10D8000038B54E25194C0820635D002B00D038BD7B
:10D810004822FF21013BA3540132A1540132A354F9
:10D820000132A3540132A354A3620132E3622363A1
:10D830006363A363E363236463640238FE39A35420
:10D8400023606360A360E36023616361A361E361BC
:10D8500023626362FFF794FF8021C123044A9B0087
:10D860000906D150012300206355D0E7042C002085
:10D87000006000404E23034AD05C431E9841C0B272
:10D880007047C046042C0020F0B50025314C021C26
:10D89000231828335D570820013500D0F0BD887863
:10D8A000002835D0236801334DD0636801334CD054
:10D8B000A36801334BD0E36804200133EED1032386
:10D8C000A018254D28300370AC460020A2279B00ED
:10D8D000FF00E0506344DE59204D0C78354080262F
:10D8E0004878DD51DD5976030005AC46304025040B
:10D8F000C0262C1CB60234402043F824051C6401C9
:10D9000010020440281C204364462043D85101E003
:10D91000FE2018704B78012B0ED00123A0209340DD
:10D920000F49C0054350A0230321C132FF329200AA
:10D93000DB05D1500020B1E7A121A0209340C90010
:10D94000C0054350EFE70023BAE70123B8E70223FD
:10D95000B6E7C046042C002000600040FFE0ECFF6A
:10D960000C05000010B50F4B1A1828321278D1B2EE
:10D9700003290AD8012489006442CC50002452B201
:10D980004532FF32084992005450FF221B182833B9
:10D990001A70A023C130FF308000FD3ADB05C25071
:10D9A00010BDC046042C0020006000400A4B10B59A
:10D9B00018182823094AA2219446C35603209B0025
:10D9C0006344C9005A58064C104322435A50C0467B
:10D9D000C046C046585010BD042C002000600040D6
:10D9E000031F0000054B1818054B28309C46007893
:10D9F00040B28000C0B260447047C046042C002092
:10DA0000006000400A4B30B518182823C356081C84
:10DA1000411E8841074AA22494460005011C9B0030
:10DA20006344E4001D59044A2A401143195130BD92
:10DA3000042C002000600040FFFFEFFFF0B54446DB
:10DA40005F4656464D46F0B4A24A87B0136800249C
:10DA5000012B00D1B8E0A04B1A68012A00D1C1E027
:10DA60009E4B1A68012A00D1CCE09D4B1A68012A0E
:10DA700000D1D7E000229B4B02921A68012A00D104
:10DA8000E2E023070BD0E30700D5F5E0A30700D5BC
:10DA900001E1630700D50CE1230700D5E0E0002C8D
:10DAA00006DB07B03CBC90469946A246AB46F0BDAB
:10DAB00001235B42984600238B4E0493371CC033EE
:10DAC00099464E3700230393331C341C01254646E8
:10DAD0009846483421784BB201332FD0C9B24B4617
:10DAE000081C9843331CC3401D4227D08B09019367
:10DAF000434642461B1828331B785BB29B00D35821
:10DB00009C46002B38D02B1C83409A46019B032B4C
:10DB100038D0A023DB059B46E02382005A44DB007B
:10DB2000D3580592C022920213401B0C191C534675
:10DB30009346029A1A4214D1032928D00134BC42D8
:10DB4000C8D1039B4646002BABD0A223A022DB000A
:10DB5000D205D358029A9A42A3D0049A02939046CF
:10DB6000B0E70229EAD1019B032B16D06346002BB4
:10DB7000E4D00199E047E1E7019B032BDED12B1CA8
:10DB800083409A465246049B13430493C1E7019B8A
:10DB9000032BEBD180239B029B46E0230599DB00FE
:10DBA000CB589A465246514B1340E022D2008B503C
:10DBB0008B585A461A43131CE022D2008B50039B09
:10DBC0000133DBB20393D1E7C121494889004158B1
:10DBD0000B4200D13FE7404B14601A680134012A20
:10DBE00000D03DE7C12242499200895802220A42F0
:10DBF00000D135E700211960384B14431A68012A17
:10DC000000D032E7C1223A499200895804220A42E0
:10DC100000D12AE700211960314B14431A68012A08
:10DC200000D027E7C12232499200895808220A42CF
:10DC300000D11FE70021144300221960294B0292F2
:10DC40001A68012A00D01CE700221A6080231B06F4
:10DC50001C43A022A223D205DB00D358029310E775
:10DC6000234A244B204ED058D158C0048903C00EFB
:10DC7000890FF368984712E7A2231D4ADB00D058AA
:10DC8000D158194EC00489033368C00E890F9847D4
:10DC9000A30700D4FDE6184B154A134ED058D158AF
:10DCA000C00489037368C00E890F9847630700D4C6
:10DCB000F2E6A3230E4ADB00D058D1580A4EC00426
:10DCC0008903B368C00E890F9847230700D4E6E69E
:10DCD000C6E7C046006100400461004008610040A2
:10DCE0000C6100407C610040042C0020FFFFFCFF21
:10DCF000006000401C05000014050000F0B545461A
:10DD000057464E46E0B40579334E6B0098465B1992
:10DD10009B00F3181B7A041C0F1C0820002B04D056
:10DD20001CBC90469946A246F0BD002A4ED0002960
:10DD30004ED043465B199B00F2507A68F3185A6044
:10DD4000627900230021002A0BD020689A008446C3
:10DD50004132FF326244116001336279DBB29A4290
:10DD6000F3D82368F978180B40B2FFF709FD0122B8
:10DD700023681A4978785B5810409343034320681E
:10DD800045444350A123DB009A46514603202368B3
:10DD900081465B58B8789C464B466146994318408B
:10DDA0000B1C514603432068AD0043500F218C46A5
:10DDB000A220397867462468C00023583940BB4305
:10DDC0000B437619235032720020A9E70720A7E7FA
:10DDD000034FEB00FF18ACE7542C002004050000B3
:10DDE000AC1D020001210A1C036830B5DB03DB0E09
:10DDF0009A40131C80220F4CA350802302689B0082
:10DE0000D4580024D4500122056809335242FF330C
:10DE1000EA500368084D1961027953009A1892007C
:10DE2000AA18117203795A00D3189B00EB181C72C0
:10DE300030BDC04600E100E0542C00200122036800
:10DE40001A6003795A00D318024A9B00D3180222A1
:10DE50001A727047542C002001220368DA60704760
:10DE600030B5802464028C40002B09D1C2230568A0
:10DE70009B00EC5051310368FF318900CA5030BD1E
:10DE8000C12305689B00EC50F4E7C046F0B50226BC
:10DE900005AC27788024FF368E400568A4002D59F4
:10DEA000B54306683551066835592B4333518023F5
:10DEB0005B028B40002F09D1C2240568A4002B51BE
:10DEC00051310368FF318900CA50F0BD053405683F
:10DED000FF342B51F4E7C0460B1C026850339446C4
:10DEE00000229B009BB263441A6080235B028B403C
:10DEF000191CC12302689B00D150704780235B022C
:10DF00008B40191CC22302689B00D1507047C04649
:10DF100008B5264B1A68002A05D0C1222449920070
:10DF20008A58D20327D4234B1A68002A05D0C1226D
:10DF30001F4992008A58920326D41F4B1A68002A60
:10DF400005D0C1221A4992008A58520325D41B4B8E
:10DF50001A68002A05D0C122154992008A58120376
:10DF600000D408BD0022A6201A60154B4000596855
:10DF70001B689847F5E70022A0201A60104B40006C
:10DF800059681B689847CEE70022A2201A600C4B04
:10DF9000400059681B689847CFE70022A4201A6008
:10DFA000074B400059681B689847D0E74081004004
:10DFB0000080004044810040488100404C81004086
:10DFC000542C002008B5264B1A68002A05D0C1221F
:10DFD000244992008A58D20327D4234B1A68002A76
:10DFE00005D0C1221F4992008A58920326D41F4BA4
:10DFF0001A68002A05D0C1221A4992008A58520391
:10E0000025D41B4B1A68002A05D0C122154992005D
:10E010008A58120300D408BD0022A6201A60154BAE
:10E0200040001969DB689847F5E70022A0201A60D4
:10E03000104B40001969DB689847CEE70022A22008
:10E040001A600C4B40001969DB689847CFE7002243
:10E05000A4201A60074B40001969DB689847D0E795
:10E0600040910040009000404491004048910040A1
:10E070004C910040542C002008B5264B1A68002A09
:10E0800005D0C122244992008A58D20327D4234BB9
:10E090001A68002A05D0C1221F4992008A589203AB
:10E0A00026D41F4B1A68002A05D0C1221A499200B3
:10E0B0008A58520325D41B4B1A68002A05D0C12266
:10E0C000154992008A58120300D408BD0022A620E8
:10E0D0001A60154B4000D9699B699847F5E7002203
:10E0E000A0201A60104B4000D9699B699847CEE781
:10E0F0000022A2201A600C4B4000D9699B69984706
:10E10000CFE70022A4201A60074B4000D9699B6921
:10E110009847D0E740A1004000A0004044A1004043
:10E1200048A100404CA10040542C0020044B852005
:10E130001A78002A00D0704701321A700020FAE7DE
:10E14000782C0020F0B556464D4644465F46F0B464
:10E1500083B06B46DE1D0023984601339B46164B69
:10E160008246164D0024994607E030780134FFF7C7
:10E170001DFABD43E4B2002D16D05F464346A740CA
:10E18000301C3370FFF7F2F93D42EED04B461B686E
:10E190003B42EAD14A463B431360534630781C70F9
:10E1A000FFF704FA002000E0042003B03CBC9046D6
:10E1B0009946A246AB46F0BD7C2C0020FF3F0000F4
:10E1C0000123834030B507201C1C83B09B0401D180
:10E1D00003B030BDA123094ADB00D4506B46DD1DDE
:10E1E0000023281C2B70FFF7C1F9054A2878136813
:10E1F000A3431360FFF7DAF90020E9E700F00140DC
:10E200007C2C002030B5002908D0002A06D001233C
:10E21000834007249D0403D1201C30BD0E24FBE75E
:10E22000074C256808241D42F6D0064BC0009C46CA
:10E23000A2236044DB00C150034B0024C250EBE733
:10E240007C2C002000F001401405000001238340D5
:10E25000980B800301D007207047002B05D0054A9A
:10E2600012681A4201D10820F6E7034A03498B508D
:10E27000F2E7C0467C2C00200405000000F00140BD
:10E2800001238340980B800301D007207047002BA7
:10E2900005D0054A12681A4201D10820F6E7A122EA
:10E2A0000249D2008B50F1E77C2C002000F00140A5
:10E2B000F0B55F464D4644465646F0B483B06B46D3
:10E2C000DF1D00239B4601339846164B82460024EF
:10E2D0000325994607E038780134FFF767F9B5431D
:10E2E000E4B2002D16D046465B46A640381C3B7073
:10E2F000FFF73CF93542EED04B461B783342EAD16A
:10E300001E434B461E70534638781C70FFF74EF97B
:10E31000002000E0042003B03CBC90469946A24691
:10E32000AB46F0BD792C0020012270B5141C84404E
:10E3300082B00723A10702D1181C02B070BD0C4D9A
:10E34000013329782142F7D00A4BC0009C466B4626
:10E35000DE1D002360444260301C3370FFF706F975
:10E360002B783078A3432B70FFF720F90023E3E7E5
:10E37000792C002000F0014001210A1C824010B5D8
:10E380000723940701D1181C10BD054B1C780823E6
:10E390001442F8D0034BC000C1500023F3E7C0463D
:10E3A000792C002000F0014001238B40F0B50724B8
:10E3B00083B09A0702D1201C03B0F0BD0E4A01348D
:10E3C00012781A42F7D0840BA40301D00724F2E795
:10E3D0006B460D1CDE1D071C301CDC71FFF7C6F8F8
:10E3E000064BA900CB18802109015A583078BA434E
:10E3F0005A50FFF7DBF8DEE7792C002000F00140EF
:10E4000001238B40F0B5072483B09A0702D1201C6A
:10E4100003B0F0BD0E4A013412781A42F7D0840BD3
:10E42000A40301D00724F2E76B46DE1D0D1C071C78
:10E43000301CDC71FFF79AF88022064BA900CB183C
:10E4400012019858384398503078FFF7AFF8DEE75C
:10E45000792C002000F0014029DF704728DF704749
:10E4600030B583B0002806D0112806D108230F4A02
:10E4700011680B43136003B030BD021C0C480178D7
:10E480008B005B189B00C518281CE9686B694C0061
:10E4900064182979074DA4002D680C300095064DAD
:10E4A0006459A0470422054B1A70E4E7682D002048
:10E4B000802C0020702D0020542D00206D2D002078
:10E4C000F0B55F464D4644465646F0B45E4F85B0C3
:10E4D0003C785E4D012C00D188E0002C00D16DE02D
:10E4E000022C16D0032C0DD1594B1868FFF7B6FF3C
:10E4F000021E07D0112800D080E00823554A116879
:10E500000B43136005B03CBC90469946A246AB460F
:10E51000F0BD504B99461B6803932B789E00F3186F
:10E520009B00EE183369984680235B0519694046C5
:10E530000904090C9B4602F079FD454B82461860A0
:10E540005B4619694346581EF3880904C018090C34
:10E5500002F06CFD82454CD00323039C9C434B4648
:10E560001C603D4B1B68002B02D10233234262D05A
:10E5700000223A4B1A703A4B5869431C54D08023FE
:10E580005B0519690904090C02F050FD031C802287
:10E590005205106911690004013B000C090458433D
:10E5A000090C02F043FDFFF759FF021EAAD0112803
:10E5B00024D108231C434B461C60A3E7294B1C6055
:10E5C000294B1C606B78002B9CD02B789A00D318B9
:10E5D0009B00ED18EA88254B1A602B79032B27D076
:10E5E000042B25D0012B00D08CE73B7000F000FC01
:10E5F00088E70123039A9A431443B0E72B789800E5
:10E60000C01880002E18301C184DF3682D685C006F
:10E61000E418317973690095154DA4000C306459E4
:10E62000A04704233B706DE780235B055B69AEE781
:10E6300000F020F866E7094A50461370FFF70EFF16
:10E64000FFF70EFF5EE7C0466D2D0020802C0020F6
:10E650007C2D0020682D0020782D00206C2D0020BE
:10E6600000100010742D00204C2D0020702D002073
:10E67000542D0020F0B55F4656464D464446F0B452
:10E680005B4B5C481A78802791008A1892009B188F
:10E69000DD681E696A005219920082181489508937
:10E6A0005268604380469044DA881B89141C99465E
:10E6B000514B92469B4600235A467F05396983B0E9
:10E6C00009044C441360090C301CA41902F034FDF9
:10E6D000002924D13B699BB29A4537D044456CD080
:10E6E000022D33D0301C3969484489B202F024FD30
:10E6F000424B890819603969201C0904090C02F091
:10E700001BFD002932D102223D4B1A70FFF7D8FEC3
:10E7100003B03CBC90469946A246AB46F0BD022DE4
:10E7200014D0301C396948440904090C02F004FD76
:10E73000324B8908196039694445E4D00904090C51
:10E74000201C02F0F9FC0029DDD00FE080235B05DE
:10E750001969301C0904090C02F068FC0322294BDA
:10E760001860274B1A70FFF7ABFED1E780256D05C7
:10E7700029692B696A4699464346D380D08889B275
:10E7800002F054FC6A464B46A6B2D380071CD188DF
:10E79000301C02F04BFCBFB280B287421DD02C6906
:10E7A0002969301C89B202F0C7FC5B462404240CA2
:10E7B00089B2641AA4081C60A5E74B46002BC5D09B
:10E7C000022DC3D0301C3969484489B202F0B4FC30
:10E7D0000A4B890819603B6995E7434624041B04EA
:10E7E0001A0C240C131B5A469B0813608BE7C04677
:10E7F000802C0020542D0020502D0020782D00204A
:10E800006D2D00207C2D0020F8B546464F46C0B443
:10E810001D4D08AC24886E78A44604240A2E2DD001
:10E820002C78A046A419092C00DD0A3C14277C434F
:10E830002C196261221C20710C32B94681C981C237
:10E84000E380634623810024104B01361A786E70F2
:10E85000A24213D142464F465743ED190C4AE9886C
:10E8600011602A79032A07D0042A05D0012A05D18C
:10E870001A70FFF725FE01E0FFF7FCFE201C0CBC20
:10E8800090469946F8BDC046802C00206D2D002092
:10E89000702D0020082170B50C1C244A82B013682A
:10E8A0001C4009D08B431360214B224A1B789B00EC
:10E8B0009B58984702B070BD1F4D2B789800C31825
:10E8C0009B00EE18317904292AD0F2687369500050
:10E8D0008218301C194E920036680C300096184E83
:10E8E00096590022B04701202A7893009B189B007C
:10E8F000EB181C71DC80D8601C615C611C816B783A
:10E900000132013BD2B26B700A2A06D02A70002273
:10E910000C4B1A70FFF7D4FDCCE700232B70F6E701
:10E920000122084B1A70FFF7CBFDC3E7682D0020CA
:10E930006C2D0020D81D0200802C0020702D00209E
:10E94000542D00206D2D002030B5244B83B0586924
:10E95000431C3ED080235B0519690904090C02F0B1
:10E9600065FB041C80235B051869196900041A699A
:10E97000000C631E58431A4B09041B68090C92B221
:10E9800092085943FFF768FD021E06D0112806D1F0
:10E990000823144A11680B43136003B030BD1249B9
:10E9A0000B789800C01880000D18281CEB68297996
:10E9B0005C00E4186B690D4DA4002D680C300095C7
:10E9C0000B4D6459A04704220A4B1A70FFF778FDDB
:10E9D000E3E780235B055C69C4E7C04600100010D4
:10E9E0007C2D0020682D0020802C0020702D002020
:10E9F000542D00206D2D0020802230B55205146961
:10EA000021492404230C0C6883B0013C5C431F4B58
:10EA10005869431C35D011690904090C02F006FB42
:10EA200080235B0519691A4B09040138090C41431D
:10EA30001A68201CFFF710FD021E06D0112806D10F
:10EA40000823144A11680B43136003B030BD124908
:10EA50000B789800C01880000D18281CEB682979E5
:10EA60005C00E4186B690D4DA4002D680C30009516
:10EA70000B4D6459A04704220A4B1A70FFF720FD82
:10EA8000E3E75069CCE7C0467C2D00200010001061
:10EA9000782D0020682D0020802C0020702D002073
:10EAA000542D00206D2D0020082330B51E4D83B05D
:10EAB0002C68234214D1A30702D501231C432C60E8
:10EAC00002221A4B1A701A4B1868FFF7C7FC021E75
:10EAD00004D011280DD108231C432C6003B030BD95
:10EAE0009C43124B134A1B782C609B009B58984701
:10EAF000F4E711490B789800C01880000D18281C05
:10EB0000EB6829795C00E4186B690C4DA4002D6852
:10EB10000C3000950A4D6459A0470422094B1A7025
:10EB2000FFF7CEFCDAE7C046682D00206C2D0020F0
:10EB30007C2D0020D81D0200802C0020702D00208C
:10EB4000542D00206D2D0020F0B58027274C7F0527
:10EB5000237839699A00D3189B00E3181A89DD8855
:10EB60001B69AD18ED18090483B0090C281C02F0CC
:10EB7000E3FA1F4B0E1C5869431C35D03969090450
:10EB8000090C02F053FA80235B0519690138090466
:10EB9000090C4143174B89191A68281CFFF75CFCC4
:10EBA000021E06D0112806D10823134A11680B4310
:10EBB000136003B0F0BD23789800C01880002618B9
:10EBC000301C0E4CF36824685D003179ED187369D0
:10EBD00000940B4CAD000C302C59A0470422094B7B
:10EBE0001A70FFF76DFCE4E77869CCE7802C002011
:10EBF00000100010502D0020682D0020702D0020E6
:10EC0000542D00206D2D002030B5154B83B01868B1
:10EC1000FFF724FC021E06D0112806D10823114A52
:10EC200011680B43136003B030BD0F490B78980097
:10EC3000C01880000D18281CEB6829795C00E418C6
:10EC40006B690A4DA4002D680C300095084D64597D
:10EC5000A0470422074B1A70FFF732FCE3E7C046D7
:10EC60007C2D0020682D0020802C0020702D00209D
:10EC7000542D00206D2D0020082370B52A4D82B040
:10EC80002C68234209D09C43284B294A1B782C60CE
:10EC90009B009B58984702B070BD0122234B1A700D
:10ECA000244B5869431C3BD080235B051969090438
:10ECB000090C02F0BBF9061C80235B051869196971
:10ECC00000041A69000C731E58431B4B09041B688F
:10ECD000090C92B292085943FFF7BEFB021EDAD02C
:10ECE000112803D108231C432C60D4E713490B7867
:10ECF0009800C01880000D18281CEB6829795C006A
:10ED0000E4186B690E4DA4002D680C3000950D4D74
:10ED10006459A04704220C4B1A70FFF7D1FBBAE7E5
:10ED200080235B055E69C7E7682D00206C2D0020FD
:10ED3000D81D0200001000107C2D0020802C002027
:10ED4000702D0020542D00206D2D002030B5224B59
:10ED500083B05869431C3AD080235B0519690904C4
:10ED6000090C02F063F9031C802252051069116935
:10ED70000004013B000C09045843090C02F056F949
:10ED8000FFF76CFB021E06D0112806D10823134A98
:10ED900011680B43136003B030BD11490B78980024
:10EDA000C01880000D18281CEB6829795C00E41855
:10EDB0006B690C4DA4002D680C3000950A4D645908
:10EDC000A0470422094B1A70FFF77AFBE3E7802380
:10EDD0005B055B69C8E7C04600100010682D002085
:10EDE000802C0020702D0020542D00206D2D00203F
:10EDF000F0B58027404D7F052C783969A60033197E
:10EE00009B00EB18DA8889B283B08A4218D8196956
:10EE100018898C46920860445969FFF71DFB021E51
:10EE200006D011282DD10823344A11680B431360F2
:10EE30003419A4002C19E288314B1A6003B0F0BDDC
:10EE4000196938698C460004000C121A18893C694B
:10EE50005969604480188918A2B29208FFF7FCFA39
:10EE6000021E06D0112827D10823244A11680B431B
:10EE7000136080235B051B69214A1B041B0C136074
:10EE8000DCE72B789800C01880002918CB68081C94
:10EE90005F00FF180B79BF009C464B6919490C3085
:10EEA0000968009118497F586146B8470422174BFA
:10EEB0001A70FFF705FBBBE72B789800C01880009D
:10EEC0002E18301C0F4DF3682D685C003179E41862
:10EED000736900950C4DA4000C306459A0470422BE
:10EEE0000A4B1A70FFF7ECFA80235B051B69044A92
:10EEF0001B041B0C1360A1E7802C0020682D002050
:10EF00004C2D0020702D0020542D00206D2D002050
:10EF10000823F0B54D4644465F4656461A1CF0B4E9
:10EF2000774D85B02C68224091465FD1754F3E7871
:10EF3000B30003939B199B00FB181A69511EDA88D2
:10EF40001B898A18D318029380235B059B46196995
:10EF50006D4B1B689846002B57D16C4B1B689A462B
:10EF600080235B05196902980904090C02F05EF818
:10EF7000824500D285E0434600D17AE0002B00D0E4
:10EF800079E0039B9C466644B600BC1921790429AC
:10EF900000D1AFE0201CE3680C305A00D21863693E
:10EFA0005B4C9200246800945A4C14590022A047EC
:10EFB000414601203A7893009B189B00FB18197179
:10EFC000D86041464046D9801861586118817B78E5
:10EFD0000132013BD2B27B700A2A00D17BE03A7049
:10EFE00000224D4B1A70FFF76BFA07E09C434B4B26
:10EFF0004B4A1B782C609B009B58984705B03CBC43
:10F0000090469946A246AB46F0BD404B09041B68AA
:10F01000090C02989A4602F009F85045A0D14A46D8
:10F02000404B1A6001234A4623432B603B4B1A7026
:10F030003D4B5869431C51D05B4619690904090CC2
:10F0400001F0F4FF031C80225205106911690004CD
:10F05000013B000C09045843090C01F0E7FFFFF7DE
:10F06000FDF9021ECAD011283BD109231C432C6094
:10F07000C4E7002B05D00322284B1A70FFF764FD6C
:10F08000BCE70022274B50461A60244B02321A700C
:10F09000FFF7E4F9021EB1D0112818D03B7899008F
:10F0A000CB189B00FD18E9684C006418281C2979CE
:10F0B0006B69174DA4002D680C300095154D6459EF
:10F0C000A0470422144B1A70FFF7FAF996E70823B9
:10F0D0001C432C6092E700233B7081E75B465B6931
:10F0E000B1E73B789800C01880003D18EB685C00E1
:10F0F000E418DBE70122084B1A70FFF7E1F97DE71E
:10F10000682D0020802C0020502D00207C2D002018
:10F11000702D0020542D00206D2D00206C2D00201E
:10F12000D81D0200782D002000100010F0B54E46CA
:10F13000574645460823E0B48C4E82B034682342DB
:10F1400000D093E08A4B1A68571C1F60894B1D68DA
:10F15000002D50D1884B802299461B7852059D0086
:10F16000ED18AB00984608234D469A464544AA44FC
:10F1700053469B681169581EEB880904C0182B89F7
:10F18000090CC01801F052FF874200D282E07B4B8D
:10F1900000D17BE01F68002F00D19CE001231A1CE6
:10F1A000224000D08DE023433360754B1A70754BBD
:10F1B0005869431C00D1BEE080235B05196909042E
:10F1C000090C01F033FF031C8022520510691169FC
:10F1D0000004013B000C09045843090C01F026FF10
:10F1E000FFF73CF9021E49D0112800D0A7E00923FF
:10F1F0001C43346042E00421614B197080235B059D
:10F200001F693F043F0C57435E4A5069421C3BD084
:10F2100019690904090C01F009FF80235B051969CC
:10F2200001380904090C41432A1C381CFFF714F962
:10F23000021E23D011284AD04F4801788B005B185A
:10F240009B00C518281CE9684C006418A4002979A3
:10F250006B694D4D0C302D6800954C4D6459A0479D
:10F2600004224B4B1A70FFF72BF907E09C43444BE9
:10F27000484A1B7834609B009B58984702B01CBCDE
:10F2800090469946A246F0BD5869C6E71B68002B18
:10F2900000D083E702223A4B381C1A70FFF7DEF8E1
:10F2A000021EEBD0112812D04B461B789900CB18C8
:10F2B00049469B00CD18E968281C4C006418A4003E
:10F2C000C5E703222E4B1A70FFF73EFCD6E7082352
:10F2D0001C433460D2E7297904293DD05346404687
:10F2E000294C5B6824685A00D2186B690094274C3B
:10F2F000920048440C3014590022A0474B4601208C
:10F300001A78494693009B189B004B441F71DF807D
:10F31000D8601F615F611F814B465B780132013B02
:10F32000D2B24B700A2A1DD00A700022184B1A70F4
:10F33000FFF7C6F8A2E780235B055B6944E74B460D
:10F340001B789800C0184B4680001D18EB68281CDD
:10F350005C00E418A4007AE701220D4B1A70FFF755
:10F36000AFF88BE700230B70DFE7C046682D002065
:10F370007C2D0020782D0020802C0020502D002096
:10F380006C2D002000100010702D0020542D002046
:10F390006D2D0020D81D020070B5274C82B0237857
:10F3A0009800C01880002518281CEB6829795A009D
:10F3B000D2186B69214D92002E680C300096204EB9
:10F3C00096590022B04700210126227893009B180D
:10F3D0009B00E3181971D980DE60196159611981A8
:10F3E00063780132013BDBB2D2B263700A2A0BD0E0
:10F3F00022700021134E14483160144E01703160A8
:10F40000002B05D102B070BD002222700022F0E76F
:10F4100093009A189200A418E3882B602379032B99
:10F4200007D0042B05D0012BECD10370FFF748F86F
:10F43000E8E7FFF71FF9E5E7802C0020702D00209A
:10F44000542D0020742D00206D2D00204C2D002007
:10F45000F0B5474680B4654D04262C7882B0231C55
:10F46000B3430ED0022810D003280AD10821604AE5
:10F470001368194258D0022C4FD0032C48D0012CCD
:10F4800046D002B004BC9046F0BD022C45D0032CFF
:10F4900059D0012CF5D10821554A1368194237D1AA
:10F4A000544F55493B780E689A00D3189B00FA18C0
:10F4B000D1888E1BB6B2D680002E6ED1D16813795A
:10F4C000480041189846101C53694C4A890012683C
:10F4D0000C3000924A4A8A58414694460022E0473E
:10F4E0003A7893009B189B00FB181E71DE80DC604D
:10F4F0001E615E611E817B780132013BD2B27B705E
:10F500000A2A66D03A7000232B70FEF7D9FFB8E7BD
:10F510008B431360FEF7D4FFB3E73A4B3A4A1B78AC
:10F520009B009B589847ACE7384A13680133136037
:10F53000032B35D0022CEDD1324B354A1B789B0082
:10F540009B5898479DE70821294A13681942DFD143
:10F55000304B284E1A683478571C1F6080235B0597
:10F560001969A30098461B199B00F3181A6909042E
:10F57000501EDA881B898018C018090C01F056FD4E
:10F580008742C7D32CD0231C43449B00F3181B791C
:10F59000042B20D0FFF700FF73E7FFF729FC70E78B
:10F5A0001448027893009B189B00C418201CE26842
:10F5B000636951008A182179104C920024680C303C
:10F5C00000940F4C14590D22A0472E70FEF778FFBF
:10F5D00057E73E7097E701232B70FEF771FF50E766
:10F5E0000D4B1B68002BCED194E7C0466D2D00203B
:10F5F000682D0020802C00204C2D0020702D002034
:10F60000542D00206C2D0020C41D0200742D0020FC
:10F61000D81D02007C2D0020502D002010B50020A8
:10F620002C2400220121464B18551434185502345D
:10F630001A5302341A531034185502341A53023430
:10F64000D9601876196259639964D9651A705A702D
:10F650001A71DA801A615A611A815A835A629A625F
:10F660009A83DA859A63DA631A86DA641A651A6607
:10F670005A661A531034185502341A5302341A5366
:10F680001034185502341A530634195104341A51DF
:10F6900004341A510C3C1A531034185502341A53BE
:10F6A0000634195104341A5104341A510C3C1A53BB
:10F6B0001034185502341A530634195104341A51AF
:10F6C00004341A510C3C1A5310341855BA201A52EB
:10F6D000063019501967C3315A5004315A500C3949
:10F6E0005A525A679A67174B1A80174B5869431C2E
:10F6F00022D080235B0519690904090C01F096FCEE
:10F7000080235B051B6902381B041B0C58430F4BFD
:10F710000021186000230E4A002013600D4A136078
:10F72000138153810C4A11700C4A13600C4A136008
:10F7300004220C4B1A6010BD80235B055869DFE77B
:10F74000802C0020602D002000100010642D00206F
:10F750007C2D0020542D00206D2D0020742D0020C4
:10F760004C2D0020682D0020F0B557464E464546EA
:10F77000E0B4344B1A680823520705D4181C1CBC8B
:10F7800090469946A246F0BD002857D0002955D092
:10F790000368002B52D080277F053A69868892B291
:10F7A00007239642EAD80F2EE8D9C288002AE5D06E
:10F7B000254B724399461B68041C9846234B4244D0
:10F7C00058690D1C9246431C3AD039690904090C4A
:10F7D00001F02CFC80225205136901381B041B0C1C
:10F7E000584307238245C9D8B107C7D1184F033BF7
:10F7F0003E88012EC2D043466B600C232E604546E6
:10F80000734314480136C1184D6025681D50A58802
:10F810000D81E08848816843136911699BB21469BE
:10F82000C018013889B2A4B201F090FC231C4A46EA
:10F830004343434413603E8000239FE70E239DE72C
:10F840007869C7E7682D0020642D002000100010A3
:10F85000602D0020542D002030B5114B1C6808236A
:10F86000640701D4181C30BD002806D0002A04D03B
:10F870000368002B03D00723F4E70E23F2E7094CBB
:10F880002568002DF7D025894068694309186089EB
:10F890006468684300198142EDD213605160E1E76A
:10F8A000682D0020542D0020F0B5474680B41E4C32
:10F8B000051C246882B00820640703D402B004BC8D
:10F8C0009046F0BD00292CD0002D2AD02C6801389C
:10F8D000002CF3D1154C2668002EEFD06E68678996
:10F8E000B04626897743B4466668BC19A045E5D280
:10F8F000002AE3D09445E1D3D418A445DEDB0930D7
:10F900008C07DBD103242342D8D146462642D5D1E9
:10F91000181C131C00900A1C0120291CFEF774FF00
:10F92000CCE70E20CAE7C046682D0020542D0020E9
:10F93000F0B5474680B41E4C051C246882B00820F0
:10F94000640703D402B004BC9046F0BD00292CD05B
:10F95000002D2AD02C680138002CF3D1154C2668D4
:10F96000002EEFD06E686789B04626897743B4468B
:10F970006668BC19A045E5D2002AE3D09445E1D3DE
:10F98000D418A445DEDB09308C07DBD103242342E5
:10F99000D8D146462642D5D1181C131C00900A1C0B
:10F9A0000420291CFEF730FFCCE70E20CAE7C04632
:10F9B000682D0020542D0020F0B54F464646C0B4B7
:10F9C000254C83B0256808246D0705D4201C03B09E
:10F9D0000CBC90469946F0BD002906D0002804D002
:10F9E0000C68002C03D00724F0E70E24EEE71B4D33
:10F9F0002E68002EF7D04E682F89B4466E897E435C
:10FA0000B1466E68B0464E464644B445EBD2002A35
:10FA1000E9D09742E7D3D618B742E4DB860701D096
:10FA20001024D3E703263342FAD167463E40F7D18C
:10FA300088466344191C171C814601F088FC424625
:10FA40000C231268009753434046ED580221321CA4
:10FA50004B46A847BAE7C046682D0020542D002029
:10FA6000F0B54F464646C0B4204A83B01268082419
:10FA7000530705D4201C03B00CBC90469946F0BD3A
:10FA8000002830D00368013C002BF3D1184B1A68D2
:10FA9000002AEFD01D895E895A686E434768B61800
:10FAA000B742E7D20934BB07E4D188468146291C16
:10FAB000B81A01F041FB093C0029DBD14046291C62
:10FAC00001F03AFB89B20029D4D14346002BD1D0B2
:10FAD0004744BE42CED30022032000924946FEF79F
:10FAE00093FE041CC6E70E24C4E7C046682D002020
:10FAF000542D002071DF704772DF704779DF704747
:10FB00007DDF704765DF7047F0B50488051C83B062
:10FB10000720012C04D01488A01C984202D90C2084
:10FB200003B0F0BD2E78012E04D16E78023636195E
:10FB3000B342F4D3023B1C1B6B460F1CA4B2081843
:10FB4000991D161CDC80FFF7DBFF0028E8D12B781D
:10FB5000022B18D0012B11D0231C0821FE2BDED83C
:10FB60003288581CB85432880020013292B2328058
:10FB7000B954328801329B183380D1E76B789C42AC
:10FB8000EBD2231CE9E76B46DB8809219C42E5D2D6
:10FB9000231CE2E7F0B55F46564644464D46F0B4B6
:10FBA00085B09A460EAB80CB061C1B8800919B4605
:10FBB0003B88904601930388002B5BD00023994635
:10FBC00002AB0024DD1C03E033880134A3422ADDAC
:10FBD0007368A1009C460422614403A801F0B7FBAE
:10FBE00003A8291C0022FFF78DFF002826D12B78BF
:10FBF0004345E9D14B46002B27D043463A88D318DA
:10FC00005B4539DC524403A8291CFFF77BFF002821
:10FC100014D13B882A780134D3183B8001239946BC
:10FC20003388A342D4DC4B46002B23D03B88019A77
:10FC3000013B9B1A9BB20C20FF2B18D905B03CBC92
:10FC400090469946A246AB46F0BD42463B889A187C
:10FC500002325A4510DC69465246013309789BB29C
:10FC60003B80D1543A88013292B23A80CAE7111CE3
:10FC7000524653540020E1E70C20DFE7F0B55F4621
:10FC800056464D464446031C0020F0B417881080A9
:10FC9000586B87B0002800D16FE10478022F18D983
:10FCA0000220112508701088013080B210800D5498
:10FCB0001088013080B210800C5414880134A4B232
:10FCC0001480186B002800D177E0251C1235BD4246
:10FCD00007D90C2007B03CBC90469946A246AB46DB
:10FCE000F0BD11250D551488013D0134A4B21480D6
:10FCF0000D5514880134A4B21480C57B0D551488A9
:10FD00000134A4B21480857B0D5514880134A4B24B
:10FD10001480457B0D5514880134A4B21480057BF2
:10FD20000D5514880134A4B21480C57A0D55148879
:10FD30000134A4B21480857A0D5514880134A4B21C
:10FD40001480457A0D5514880134A4B21480057AC4
:10FD50000D5514880134A4B21480C5790D5514884A
:10FD60000134A4B2148085790D5514880134A4B2ED
:10FD7000148045790D5514880134A4B21480057996
:10FD80000D5514880134A4B21480C5780D5514881B
:10FD90000134A4B2148085780D5514880134A4B2BE
:10FDA000148045780D5514880134A4B2148000786D
:10FDB000085514880134A4B214802E201D5C002D37
:10FDC00000D0DCE01E1C2D23F35C151C8846002BA4
:10FDD00000D0F7E0B378002B00D024E1F378002BBB
:10FDE00016D0E21CBA4200D973E7022241464046CF
:10FDF0000A5501212A88013292B22A8081542A8828
:10FE0000013292B22A8083542C880134A4B22C800F
:10FE10007368002B16D01A78E31CBB4200D958E750
:10FE20000223414640460B550A212B8801339BB2E1
:10FE30002B80C1542B8801339BB22B80C2542B885A
:10FE400001332B803389002B00D010E1338A002B43
:10FE500000D076E1338B002B00D08BE1336A002B8E
:10FE60004AD02A880C20911DB94200D932E719885E
:10FE700005388B46052900D82CE7CC4C5C44A4B24D
:10FE8000A146CB4CA446A14500D823E75C88A246F6
:10FE9000052C00D81EE7C54C6946A146D1444C4606
:10FEA000CC81CC89644500D814E7C24CA34504D06A
:10FEB000A24502D0D34500D90CE705214046815424
:10FEC0002A880D31013292B22A8081542A88013267
:10FED00092B22A80198842441170090A51702A8806
:10FEE000023292B22A805988131C43441970090ABD
:10FEF00059702B8802332B80746A002C32D0A28870
:10FF00002988131D5B180C20BB4200D9E2E6931C24
:10FF1000FE2B00D9DEE6434603325A54FF22414607
:10FF20002B8801339BB22B80CA542B8801339BB2A0
:10FF30002B80228843441A70120A5A702B8802338D
:10FF40009BB22B80A288002A0CD0A168053800291A
:10FF500000D1BFE64344181C01F0F9F92A88A388B0
:10FF6000D3182B802C23F35C002B00D098E033783F
:10FF7000002B00D0DEE00020ACE60024A1E6E61C69
:10FF80002238BE4200D9A5E602260E551C24108850
:10FF9000013080B210800C541088013080B2108083
:10FFA000022D00D10FE100D806E1032D00D108E1B8
:10FFB000042D00D0F7E003240C5414880134A4B2BB
:10FFC0001480FFE609340C20BC4200D982E604A864
:10FFD000FFF790FD002800D07CE6414608222B88E0
:10FFE000CA542B88133201339BB22B80CA5402AB04
:10FFF0009C4609212888153A013080B22880614446
:020000022000DC
:10000000404401F0A4F92B8802AA0633127A9BB26D
:100010002B80002A00D001224146CA542C8801348A
:10002000A4B22C80D6E604340C20BC4200D951E6A0
:1000300004A8FFF763FD002800D04BE603224146E9
:100040002B88CA542B88163201339BB22B80CA549A
:100050002B8802AA01339BB212892B8043441A7069
:10006000120A5A702C880234A4B22C80B6E6341CD2
:10007000083400950197201C022102224346FFF715
:1000800089FD002800D025E600950197201C062157
:1000900010224346FFF77EFD002800D01AE6D5E681
:1000A000B46A002C00D17EE0A3880233FE2B00D975
:1000B0000FE6002291461632924616322888934661
:1000C0000BE04B465C00B36A4C449C46A40064447D
:1000D000A3880233FE2B00D9FBE54246514601338B
:1000E00013542B8801339BB22B80D1542B880133BE
:1000F0009BB22B80228843441A70120A5A702888B7
:10010000023080B22880A288002A0AD0A168002983
:1001100049D0404401F01BF92888A388C01880B258
:1001200028804B460133DBB299465B46F35C4B4576
:10013000C7D81CE7301C41462A1C3B1CFFF7E4FCD7
:10014000C8E5341C103400950197201C03210222BD
:100150004346FFF71FFD002800D0BBE5009501973F
:10016000201C072110224346FFF714FD002800D071
:10017000B0E56FE6341C183400950197201C14215B
:1001800002224346FFF706FD002800D0A2E50095B5
:100190000197201C152110224346FFF7FBFC002885
:1001A00000D097E55AE6072094E5C0467FF3FFFFAD
:1001B0007DF30000FFFF0000012DF4D100240C545A
:1001C000FBE60E54F9E601240C54F6E6F0B54E4673
:1001D000574645461F23E0B496B002AA041C0E1CE5
:1001E000D381002800D171E0C3785B0767D5002375
:1001F00002AA9381436B002B00D13EE11B780222BF
:1002000006ADAB7003230327052104202A700F32AB
:100210006A7002AA9381226B002A3AD0112306AD9C
:10022000EB55013B2B54D37B6B54907B4B1CE85418
:10023000507B8B1CE854107BCB1CE854D07A0B1DF0
:10024000E854907A4B1DE854507A8B1DE854107A8C
:10025000CB1DE854D0790133E85490790133E85448
:1002600050790133E85410790133E854D0780133E0
:10027000E85490780133E854013302A88381507820
:10028000E854013302A883811278EA540133838150
:100290009BB22E22A25C002A00D0F1E12D22A25CAA
:1002A000002A00D011E1A278002A00D03DE1E278D6
:1002B000002A35D0D91C1F2925D90C2000E00720A1
:1002C00016B01CBC90469946A246F0BD002502AB74
:1002D0009881002E00D1D4E0F378002BEFD102AA50
:1002E00094460E236344301C0EA91A1CFFF7C6FC6B
:1002F0000028E5D102AB9B7B0EAA02A9097B281C32
:10030000FFF7FAFBDCE70220012706ADE854581C92
:1003100002339BB280B22F54EA548BB202AA93816B
:100320006268002A0FD01078DA1C1F2AC5D8022173
:100330000A2706ADE954591C02339BB289B26F54A7
:10034000E85402AB9A812389002B00D09EE0238AD7
:10035000002B00D00AE1238B002B00D025E1236A7B
:10036000002B43D002AA92890C20911D1F29A7D8E7
:100370001888824655460720052DA1D9D24D5544EF
:10038000ADB2AC46D14DA846AC4599D95D88A946D9
:10039000052D00D894E7CC4D6F46AC46CC4465465D
:1003A000FD81FD89454500D88AE7C94DAA4504D09D
:1003B000A94502D0CA4500D982E70520122706AD1B
:1003C000A854501C80B22F54901C80B202AFB88148
:1003D0001F88281807703F0A477004325B8892B262
:1003E000AD182B701B0A6B7002AB9981676A002FE6
:1003F0002FD0BB880C20991C02AB9B899A1C5518E6
:100400001F2D00D95CE7FE2900D959E706AD01315F
:10041000E954591C89B2F330685492B202A98A8116
:100420003988AA180433117098B2090A02AB5170C6
:100430009881BA88002A0CD0B968002900D13EE71B
:10044000281800F084FF02ABBA889B89D31802AA4F
:1004500093812C23E15C002900D0C5E006AD237810
:10046000002B00D135E7201C291C05AA1F23FFF70C
:100470004BFB002800D12CE722E7002702210120B6
:10048000C9E602ABDE810022002336E705AB271C5C
:1004900000931F23083706AD98460193381C0221AC
:1004A00002222B1CFFF776FB002800D008E705ABE3
:1004B00000934346381C0193062110222B1CFFF7A2
:1004C00069FB002800D0FBE641E709330C201F2B15
:1004D00000D9F5E60EA8FFF70DFB002800D0EFE6E7
:1004E000082202AB9B8906ADEA545A1C023398B22B
:1004F0001B2102AB9C4692B2A954163198816144EB
:100500000622281800F023FF302002AB02A99B89A5
:10051000091809789A1D92B2002900D001210733E9
:10052000A9549BB202AA9381BDE604330C201F2B71
:1005300000D9C5E60EA8FFF7E1FA002800D0BFE613
:100540000322192102AB9B8906ADEA545A1C92B2D0
:10055000A95402AA118E9A1C92B2AD1804332970C4
:100560009BB2090A02AA69709381A0E605AB271C19
:1005700000931F23103706AD98460193381C0321C2
:1005800002222B1CFFF706FB002800D098E605ABE3
:1005900000934346381C0193072110222B1CFFF7C0
:1005A000F9FA002800D08BE6D5E605AB271C0093AE
:1005B0001F23183706AD98460193381C14210222D8
:1005C0002B1CFFF7E7FA002800D079E605AB009373
:1005D0004346381C0193152110222B1CFFF7DAFA31
:1005E000002800D06CE6BAE6A76A002F00D166E6C4
:1005F000BB880233FE2B00D95FE602AA9089002255
:100600009046163291461632924606AD4A4601335E
:100610002B54431C9BB2EA54831C9BB202AA9381C5
:100620003A88EB181A700430120A5A7080B202AB82
:100630009881BA88002A0FD0B968002900D13EE617
:10064000281800F084FE02AB9B89B888C01880B2DD
:1006500002AB98815346E15C43460133DBB29846D6
:100660008B4200D3FBE643465F00A36A47449C46A7
:10067000BF006744BB880233FE2BC7D90C201FE69E
:1006800002201C27591C06AD89B2E8546F54191872
:1006900089B282420CD010D9032A0CD0042A00D08F
:1006A0000DE603226A5403339BB202AA9381F5E557
:1006B00001226A54F7E76854F5E7012A00D0FEE505
:1006C00000226D182A70EEE77FF3FFFF7DF3000034
:1006D000FFFF000075DF704776DF70477ADF7047F5
:1006E0007BDF704710B5184B82B01888174B9842C3
:1006F00014D0174A174C13780133DBB21370217BE7
:1007000099420DD200231370237C002B12D1636910
:10071000002B03D0002201A80270984702B010BD40
:100720000D49FFF7D7FF0028F8D0A369002BF5D0BB
:100730009847F3E73B21FFF7CFFF0028E7D0A369F5
:10074000002BE4D09847E2E7CC2D0020FFFF00000B
:100750008C2D0020902D0020D02D002030B51B4B7B
:100760001B4A5B88118883B099420FD852889A42FD
:100770000CD3184B5B69002B03D0012201A8027037
:100780009847154C0023237003B030BD124C2378DA
:10079000002B08D00F4B5B69002BF3D0002201A87F
:1007A00002709847EEE70D4B0A4D1B78002B0BD0DB
:1007B000A9680B480022FCF7F9FD0028E2D0AB69DC
:1007C000002BDFD09847DDE76968F2E7842D002031
:1007D000D02D0020902D0020802D00208C2D002079
:1007E000AC2D0020164938B5021C0B1C32CA32C38E
:1007F00032CA32C312681A600022124B01681A70A2
:10080000002916D0104C0832201C00F0A0FD201C3E
:10081000FFF764FF00280BD101220C4B52421A80D3
:1008200000220B4B0B481A7000210B4AFCF7A4FD69
:1008300038BD0548FFF754FF0028EDD0F8E7C04663
:10084000902D0020802D0020D02D0020CC2D0020C8
:100850008C2D0020EC1D0200E506020010B5038877
:10086000112B31D01FD9122B16D0502B1AD11F4C5F
:10087000C288E3899A4215D1038A022B12D1837C64
:10088000DB070DD41A48FCF70DFE00280AD0A36937
:10089000002B07D0984705E0164B083006C806C362
:1008A000FFF75CFF10BD102BFCD18288124B183073
:1008B0001A80104B06C806C30022104B1A700B4B4F
:1008C000DB89002BEED1EBE701220B4B52421A8061
:1008D00000220A4B06481A70FCF7E4FD0028E1D01C
:1008E000024B9B69002BDDD09847DBE7902D002061
:1008F000AC2D0020842D0020CC2D00208C2D00203C
:1009000038B5041C081C0D1C00F04CFD65602080EF
:1009100038BDC046A0DF7047A2DF7047F0B556462D
:100920004D4644465F46F0B491B0019089469046EA
:100930009A4600294FD04346002B02D10020FCF7F5
:10094000BDF9022509AC201C00211C22FAF760FC2D
:10095000237803AE2B43237001239B46B3706B4671
:1009600000279B8802A80021032233806760E7608C
:1009700027616761A761FAF74BFC53461B7802AA0F
:10098000137053465B78002153709378062293438B
:100990001D43E7231D405B469D4302AB9D7004ADA4
:1009A000281C0E32FAF734FC02AB6B6043462B81F5
:1009B000AB814B462B610A4B211C18882A1C1A9BC1
:1009C00004966F81FFF7A8FF11B03CBC9046994692
:1009D000A246AB46F0BD0020FCF770F9ABE7C0467D
:1009E000202E0020F0B55F464D4656464446012372
:1009F000F0B495B004A98B70A14B071C0B80A14BE0
:100A000001201A1C9946FFF785FF002800D0E4E07A
:100A10003A88002A00D0E7E03A89002A00D0F1E0C5
:100A20003A8A002A00D0F9E03A8B002A00D001E18E
:100A30003A8C002A00D009E13A8D002A00D011E159
:100A40003B6B002B5FD01A7806AD2A70002202267D
:100A500092465A780DAC6A709A780021AA70DA78BA
:100A6000201CEA701A792A719B681A0A6B71AA71A4
:100A70001B0C1C22EB71FAF7CBFB237800213343CC
:100A8000237053466360E36023616361A3610133B4
:100A900098466B4642469A756A467B4B03A89382FA
:100AA0000322FAF7B5FB3C236A46FB5C0021137373
:100AB0003B1C3C335B785373937B062293431E436A
:100AC0000823F6B29B469E4308339E4343469E430B
